{
  "transactions": [
    {
      "hash": "0xc9064bc6b7f3356c1aa8805dd7b183a70bff700c35d0bb6212fc0c078c38b7df",
      "transactionType": "CALL",
      "contractName": null,
      "contractAddress": "0x57837f4fe3b16fc44be47a24cc24d5fa1593c53b",
      "function": "issuePassport(address,(uint8,uint16,uint32,uint8,uint24,uint8,bytes32,bytes32,uint8,address,bytes32,uint64,bytes32,bytes32),string)",
      "arguments": [
        "0x7dfaD7deD1B3351D8BA46703b47296056688c664",
        "(1, 7777, 1509968162, 2, 0, 1, 0x88cb9c1f12c418828d0ecdcf1c904a42e856893adb9aac6d8dd42b508ebd98e4, 0xfe9660b38c2cb79bb34af1856985a2226a0903b6307816db7b426a7f83aa7d9a, 0, 0x7dfaD7deD1B3351D8BA46703b47296056688c664, 0x0000000000000000000000000000000000000000000000000000000000000000, 0, 0x0000000000000000000000000000000000000000000000000000000000000000, 0x0000000000000000000000000000000000000000000000000000000000000000)",
        "ipfs://bafkreid5s6lz4ziey2s755b5rytpwxg4zzb6w3k5cpbkwi5g7wm3gczrsu"
      ],
      "transaction": {
        "from": "0x3470f73b82c557ed90fd07d9ae8b3e276af97df1",
        "to": "0x57837f4fe3b16fc44be47a24cc24d5fa1593c53b",
        "gas": "0x45175",
        "value": "0x0",
        "input": "0x6a1db3b90000000000000000000000007dfad7ded1b3351d8ba46703b47296056688c66400000000000000000000000000000000000000000000000000000000000000010000000000000000000000000000000000000000000000000000000000001e61000000000000000000000000000000000000000000000000000000005a00492200000000000000000000000000000000000000000000000000000000000000020000000000000000000000000000000000000000000000000000000000000000000000000000000000000000000000000000000000000000000000000000000188cb9c1f12c418828d0ecdcf1c904a42e856893adb9aac6d8dd42b508ebd98e4fe9660b38c2cb79bb34af1856985a2226a0903b6307816db7b426a7f83aa7d9a00000000000000000000000000000000000000000000000000000000000000000000000000000000000000007dfad7ded1b3351d8ba46703b47296056688c664000000000000000000000000000000000000000000000000000000000000000000000000000000000000000000000000000000000000000000000000000000000000000000000000000000000000000000000000000000000000000000000000000000000000000000000000000000000000000000000000000000000000000000000000000000000000000000000000000000000000000000000000000002000000000000000000000000000000000000000000000000000000000000000042697066733a2f2f6261666b726569643573366c7a347a6965793273373535623572797470777867347a7a623677336b356370626b7769356737776d3367637a727375000000000000000000000000000000000000000000000000000000000000",
        "nonce": "0x12",
        "chainId": "0x14a34"
      },
      "additionalContracts": [],
      "isFixedGasLimit": false
    }
  ],
  "receipts": [
    {
      "status": "0x1",
      "cumulativeGasUsed": "0x4393d0",
      "logs": [
        {
          "address": "0x57837f4fe3b16fc44be47a24cc24d5fa1593c53b",
          "topics": [
            "0xddf252ad1be2c89b69c2b068fc378daa952ba7f163c4a11628f55a4df523b3ef",
            "0x0000000000000000000000000000000000000000000000000000000000000000",
            "0x0000000000000000000000007dfad7ded1b3351d8ba46703b47296056688c664",
            "0x0000000000000000000000000000000000000000000000000000000000000001"
          ],
          "data": "0x",
          "blockHash": "0xb982d1c411df2c7bb316dce7c4be22e835e5f00bf03139d2f2d872d614a4c78b",
          "blockNumber": "0x1fb4324",
          "blockTimestamp": "0x6909e528",
          "transactionHash": "0xc9064bc6b7f3356c1aa8805dd7b183a70bff700c35d0bb6212fc0c078c38b7df",
          "transactionIndex": "0x7",
          "logIndex": "0x62",
          "removed": false
        },
        {
          "address": "0x57837f4fe3b16fc44be47a24cc24d5fa1593c53b",
          "topics": [
            "0x94c2cf54b4b42d4b31b3e992f37fdd66f1ea01d73310040290d74c8936484234",
            "0x0000000000000000000000000000000000000000000000000000000000000001",
            "0x0000000000000000000000007dfad7ded1b3351d8ba46703b47296056688c664",
            "0x0000000000000000000000003470f73b82c557ed90fd07d9ae8b3e276af97df1"
          ],
          "data": "0x",
          "blockHash": "0xb982d1c411df2c7bb316dce7c4be22e835e5f00bf03139d2f2d872d614a4c78b",
          "blockNumber": "0x1fb4324",
          "blockTimestamp": "0x6909e528",
          "transactionHash": "0xc9064bc6b7f3356c1aa8805dd7b183a70bff700c35d0bb6212fc0c078c38b7df",
          "transactionIndex": "0x7",
          "logIndex": "0x63",
          "removed": false
        },
        {
          "address": "0x57837f4fe3b16fc44be47a24cc24d5fa1593c53b",
          "topics": [
            "0xe73f7a71f35e3cc545c9f1a5c1388c006cdac46284eff7806bdff08149015c18",
            "0x0000000000000000000000000000000000000000000000000000000000000001"
          ],
          "data": "0x33c53cafc839e7dbcf592edd88b110bf56aa6269754cdb75e1061e9e862c2c5d",
          "blockHash": "0xb982d1c411df2c7bb316dce7c4be22e835e5f00bf03139d2f2d872d614a4c78b",
          "blockNumber": "0x1fb4324",
          "blockTimestamp": "0x6909e528",
          "transactionHash": "0xc9064bc6b7f3356c1aa8805dd7b183a70bff700c35d0bb6212fc0c078c38b7df",
          "transactionIndex": "0x7",
          "logIndex": "0x64",
          "removed": false
        }
      ],
      "logsBloom": "0x00400000000000000000000000000004100000000000000000000100000080000000000000000000000000000000000000000000000000000000000000040000000000000000000000200008000000000000000000040000000000000000000000000000020000000000000000000800000000000000000000000010000000000000000000000100000000000000000100000000000000000000000000000000000000000000000800000000000000000000000000000000200000000000000000000002000000100000000000000000000000000000002000020000004060000000000000000000000000000000000000000000000000000008000000000000",
      "type": "0x2",
      "transactionHash": "0xc9064bc6b7f3356c1aa8805dd7b183a70bff700c35d0bb6212fc0c078c38b7df",
      "transactionIndex": "0x7",
      "blockHash": "0xb982d1c411df2c7bb316dce7c4be22e835e5f00bf03139d2f2d872d614a4c78b",
      "blockNumber": "0x1fb4324",
      "gasUsed": "0x32055",
      "effectiveGasPrice": "0xf4291",
      "from": "0x3470f73b82c557ed90fd07d9ae8b3e276af97df1",
      "to": "0x57837f4fe3b16fc44be47a24cc24d5fa1593c53b",
      "contractAddress": null,
      "l1BaseFeeScalar": "0x44d",
      "l1BlobBaseFee": "0x1",
      "l1BlobBaseFeeScalar": "0xa118b",
      "l1Fee": "0x89",
      "l1GasPrice": "0x9",
      "l1GasUsed": "0xf45"
    }
  ],
  "libraries": [],
  "pending": [],
  "returns": {},
  "timestamp": 1762256166507,
  "chain": 84532,
  "commit": null
}